{
  "_format": "hh-sol-artifact-1",
  "contractName": "ConfidentialOrderBook",
  "sourceName": "contracts/ConfidentialOrderBook.sol",
  "abi": [
    {
      "inputs": [],
      "stateMutability": "nonpayable",
      "type": "constructor"
    },
    {
      "anonymous": false,
      "inputs": [
        {
          "indexed": false,
          "internalType": "bool",
          "name": "isBuy",
          "type": "bool"
        },
        {
          "indexed": false,
          "internalType": "bytes32",
          "name": "priceHandle",
          "type": "bytes32"
        },
        {
          "indexed": false,
          "internalType": "bytes32",
          "name": "qtyHandle",
          "type": "bytes32"
        }
      ],
      "name": "OrderPlaced",
      "type": "event"
    },
    {
      "anonymous": false,
      "inputs": [
        {
          "indexed": false,
          "internalType": "bool",
          "name": "isBuy",
          "type": "bool"
        },
        {
          "indexed": false,
          "internalType": "bytes32",
          "name": "priceHandle",
          "type": "bytes32"
        },
        {
          "indexed": false,
          "internalType": "bytes32",
          "name": "qtyHandle",
          "type": "bytes32"
        }
      ],
      "name": "TopOfBookUpdated",
      "type": "event"
    },
    {
      "inputs": [],
      "name": "getTopOfBook",
      "outputs": [
        {
          "internalType": "bytes32",
          "name": "bidPrice",
          "type": "bytes32"
        },
        {
          "internalType": "bytes32",
          "name": "bidQty",
          "type": "bytes32"
        },
        {
          "internalType": "bytes32",
          "name": "askPrice",
          "type": "bytes32"
        },
        {
          "internalType": "bytes32",
          "name": "askQty",
          "type": "bytes32"
        }
      ],
      "stateMutability": "view",
      "type": "function"
    },
    {
      "inputs": [
        {
          "internalType": "bool",
          "name": "isBuy",
          "type": "bool"
        },
        {
          "internalType": "bytes32",
          "name": "priceHandle",
          "type": "bytes32"
        },
        {
          "internalType": "bytes32",
          "name": "qtyHandle",
          "type": "bytes32"
        }
      ],
      "name": "placeOrder",
      "outputs": [],
      "stateMutability": "nonpayable",
      "type": "function"
    }
  ],
  "bytecode": "0x608060405234801561001057600080fd5b5061030e806100206000396000f3fe608060405234801561001057600080fd5b50600436106100365760003560e01c80636ceb34d61461003b578063fe2d07e014610057575b600080fd5b610055600480360381019061005091906101eb565b610078565b005b61005f610158565b60405161006f949392919061024d565b60405180910390f35b82156100cd5781600081905550806001819055507f05764ff825813dd022c26161f6937befcf5d91dc6776f5283ec05ead0c19d4d2600183836040516100c0939291906102a1565b60405180910390a1610118565b81600281905550806003819055507f05764ff825813dd022c26161f6937befcf5d91dc6776f5283ec05ead0c19d4d26000838360405161010f939291906102a1565b60405180910390a15b7f735f2799938760d496dc38cac51310e4b73390ef5c27539d692a98282f70048a83838360405161014b939291906102a1565b60405180910390a1505050565b600080600080600054935060015492506002549150600354905090919293565b600080fd5b60008115159050919050565b6101928161017d565b811461019d57600080fd5b50565b6000813590506101af81610189565b92915050565b6000819050919050565b6101c8816101b5565b81146101d357600080fd5b50565b6000813590506101e5816101bf565b92915050565b60008060006060848603121561020457610203610178565b5b6000610212868287016101a0565b9350506020610223868287016101d6565b9250506040610234868287016101d6565b9150509250925092565b610247816101b5565b82525050565b6000608082019050610262600083018761023e565b61026f602083018661023e565b61027c604083018561023e565b610289606083018461023e565b95945050505050565b61029b8161017d565b82525050565b60006060820190506102b66000830186610292565b6102c3602083018561023e565b6102d0604083018461023e565b94935050505056fea26469706673582212201cef1976177701e65ed51f48e215edc41ec42bffa3f9f1b24aa457c60fda01fd64736f6c63430008180033",
  "linkReferences": {},
  "deployedLinkReferences": {}
}